S00F00004F45455F43494E2E7372656303
S11300000C94E7000C9404010C9404010C94040176
S11300100C9404010C9404010C9404010C94040148
S11300200C9404010C9404010C9404010C94040138
S11300300C9404010C9404010C9404010C94040128
S11300400C94F9120C9404010C9404010C94040112
S11300500C9404010C9404010C9404010C94040108
S11300600C9404010C9404010F034F034F034F033A
S11300704F034F034F034F034F034F034F034F03EC
S11300804F030F034F034F034F034F034F034F031C
S11300904F034F034F034F034F034F034F034F03CC
S11300A04F034F034F034F034F034F034F034F03BC
S11300B04F034F034F034F034F034F034F034F03AC
S11300C04F034F034F034F034F034F034F034F039C
S11300D04F034F034F034F034F034F030F034F03CC
S11300E04F034F034F034F03DD024F034F034F03EF
S11300F0E7024F034F034F034F034F034F034F03D5
S1130100F1024F034F034F03FB024F0305031B038D
S1130110C405E005C405C805E005C405C405C40557
S1130120C405C405C405C405C405C405C405E00567
S1130130E005E005E005E005E005E005E005E00593
S1130140E005E005C405E005E005E005E005E0059F
S1130150E005E005E005E005E005E005E005E00573
S1130160E005E005E005E005E005E005E005E00563
S1130170E005E005E005E005E005E005E005E00553
S1130180E005E005C4054E414E494E495459494ED7
S113019046CDCCCC3D0AD7233C17B7D13877CC2BEE
S11301A0329595E6241FB14F0A000020410000C893
S11301B04200401C4620BCBE4CCA1B0E5AAEC59D14
S11301C0746364696E6F70737578585B00001124F2
S11301D01FBECFEFD8E0DEBFCDBF12E0A0E0B1E09C
S11301E0E8EAFEE302C005900D92A43CB107D9F7FA
S11301F022E0A4ECB2E001C01D92A13FB207E1F7F6
S11302000E9435120C94521F0C9400008EE2089543
S11302104F925F926F927F928F929F92AF92BF9212
S1130220CF92DF92EF92FF92CF93DF9300D000D072
S1130230CDB7DEB76B017C0149015A01DC01CB016A
S1130240BF7789839A83AB83BC8329013A01E894FD
S113025077F8A3019201BC01CD010E94CE141816B7
S113026024F449805A806B807C80A5019401C701E5
S1130270B6010E9474136B017C01E894F7F820E046
S113028030E040E054E3C301B2010E94D3149B0167
S1130290AC0191E09983C701B6010E94E1131816DD
S11302A00CF41982A9818A2F90E00F900F900F907F
S11302B00F90DF91CF91FF90EF90DF90CF90BF90A0
S11302C0AF909F908F907F906F905F904F90089524
S11302D0DC0140E050E020E030E029C0FD01E40F03
S11302E0F51F908160ED690F6A3028F4290F311DE4
S11302F02053310911C08FEB890F863028F4290F60
S1130300311D2753310908C08FE9890F8630A8F4BD
S1130310290F311D275531094330510530F42295F9
S11303203295307F3227207F32274F5F5F4F443032
S11303305105A0F2822F932F089580E090E0089554
S1130340CF92DF92EF92FF920F931F93CF93DF939D
S11303509B01281B390B263031050CF488C0EA01B7
S11303606B017C0102960E9468018C019C5D8115E1
S113037024E0920708F47DC09C5F8115944048F501
S1130380C7010696B601681B790B663071050CF43B
S113039072C0F70186818C3509F06FC0878185377B
S11303A009F06DC0C70108960E9468019C013C5D7C
S11303B02115344008F065C0102F0027110F110FCC
S11303C09370082B192B20E030E02F5F3F4F8CE017
S11303D003C020E030E086E0003811052105310536
S11303E0B0F0011548E014072105310598F0011516
S11303F0110591E02907310580F001151105E1E1AE
S11304002E07310508F03FC060EF54E008C060E0FB
S113041051E005C060EC52E002C060EE53E09FEF93
S1130420950F11C0E881F981E90FF11D402F4F7339
S113043040684083689415F8369527951795079575
S11304401694D1F791509111EDCF523028F0E881F4
S1130450F981062B008304C0E881F9810F770083BA
S113046028813981250F311D398328830DC080E00F
S11304700BC080E009C080E007C080E005C080E0D8
S113048003C080E001C080E0DF91CF911F910F9104
S1130490FF90EF90DF90CF9008956F927F928F92AC
S11304A09F92AF92BF92CF92DF92EF92FF920F93FF
S11304B01F93CF93DF9300D0CDB7DEB75C017B01F0
S11304C0DB018D919C9111971496ED91FC911597F8
S11304D06F01BFEFCB1ADB0AC80ED91E1A8219822C
S11304E0AC014F01880E991EF4018081823209F01B
S11304F0CBC0860160E070E00FC0AC3559F40F5FEB
S11305001F4F9801241B350B2817390708F0BFC06B
S11305106F5F7F4F0F5F1F4F38019801241B350B0E
S1130520D70112968D919C9113972817390720F4BF
S1130530F801A081A23209F72817390708F0AAC0E8
S1130540D8018C91823209F0A8C0C3018819990995
S1130550861B970BD7011896ED91FC91199701967C
S113056009954C01009709F49AC09A8389836EC057
S1130570F60180818C3569F0E981FA81CF01019619
S11305809A838983D6018C918083F60131966F0119
S11305905DC0C3018C199D09181619060CF07FC0A3
S11305A0E1818E2F90E0FC01B297E435F10508F06B
S11305B076C0EC5CFF4F0C946215E981FA81CF019F
S11305C001969A83898388E0808382E03DC0E98133
S11305D0FA81CF0101969A8389838CE0808382E03B
S11305E033C0E981FA81CF0101969A8389838AE035
S11305F0808382E029C0E981FA81CF0101969A8340
S113060089838DE0808382E01FC0E981FA81CF0174
S113061001969A83898389E0808382E015C0E98109
S1130620FA81CF0101969A838983D60111968C9120
S1130630808382E009C0AE014F5F5F4FB801C601FD
S11306400E94A001882359F1C80ED11CC016D106FE
S113065008F48ECFE981FA81108280E190E0F501FF
S11306609783868391868086D7018D919C9111977B
S1130670F301E81BF90BCF01019615969C938E9319
S1130680149781E090E024C0812C912C08C0812C27
S1130690912C05C0812C912C02C0812C912C8114A9
S11306A0910439F0D7011A96ED91FC911B97C4017E
S11306B00995C114D10451F0F70180819181C81AC0
S11306C0D90AD582C48280E090E002C080E090E044
S11306D00F900F90DF91CF911F910F91FF90EF90AA
S11306E0DF90CF90BF90AF909F908F907F906F904E
S11306F00895FC01009759F16081718161157105BC
S113070049F1009751F18481958142815381841785
S1130710950728F024C02F5F3F4F358324833097FB
S113072059F0248135812417350730F4DB01A20FF9
S1130730B31F8C91813278F38481958148175907CE
S113074089F40197958384838E2F9F2F089580E0E9
S113075090E0089580E090E008959F2F08958E2FF3
S11307609F2F08958E2F9F2F0895FC01718360831E
S1130770FB019383828308950F931F93CF93DF9399
S11307806115710561F1009769F16817790769F1DD
S1130790DC011496ED91FC911597309761F4159650
S11307A07C936E931497FB0173836283118210828E
S11307B081E090E01FC02281338121153105C1F011
S11307C0EB018C01C9010E94B503D8011496ED9187
S11307D0FC911597D383C28381E090E00BC080E045
S11307E090E008C080E090E005C080E090E002C0A6
S11307F081E090E0DF91CF911F910F9108950895CA
S1130800CF93DF93DC01892BD1F02D913C9111978B
S113081021153105A1F014968D919C911597E9014C
S1130820C80FD91FFE0101900020E9F73197EC1B96
S1130830FD0BE80FF91F1596FC93EE931497DF91C7
S1130840CF910895EF92FF920F931F93CF93DF936D
S11308500097C9F0DB018C01FC0101900020E9F74D
S11308603197E81BF90BEF012196ED91FC91CE0134
S113087009957C01009751F0AE01B8010E94C61899
S11308808E2D9F2D05C080E090E002C080E090E0B6
S1130890DF91CF911F910F91FF90EF900895AF9248
S11308A0BF92CF92DF92EF92FF920F931F93CF9359
S11308B0DF930097C1F161157105C1F1411551052F
S11308C0C1F184179507C1F17901EA01AB016C010B
S11308D0012B41F0CB010E94FF035C010E811F81BB
S11308E012600AC0B901CA010E9422045C01892B6A
S11308F031F10E811F811D7F8E819F8191FD0AC080
S113090088899989009731F0D7011296ED91FC916D
S113091013970995B98AA88A1F830E83BE01C6015D
S11309200E94BC030EC080E090E00BC080E090E029
S113093008C080E090E005C080E090E002C080E064
S113094090E0DF91CF911F910F91FF90EF90DF9096
S1130950CF90BF90AF900895EF92FF920F931F93A3
S1130960CF93DF93FC01892B09F473C080819181BB
S1130970009709F479C0228133812115310531F0C2
S1130980448155814217530708F066C077230CF45D
S113099066C044815581640F751F6F5F7F4F2617B2
S11309A0370718F0840F951F5FC020853185232BEE
S11309B009F058C0611520E4720728F077233CF44D
S11309C080E090E051C08B01000F111F02C00FEFB7
S11309D01FE7EF010088F189E02D309789F0B80115
S11309E009957C01892B61F5EE85FF8588819981C4
S11309F009951B821A821982188280E090E034C023
S1130A00EC85FD85C80109957C01009761F4EE85AC
S1130A10FF858881998109951B821A82198218821F
S1130A2080E090E021C04C815D81688179814F5FD5
S1130A305F4F0E94C618EE85FF85888199810995CC
S1130A401B830A83F982E8828C819D818E0D9F1D10
S1130A500BC080E090E008C080E090E005C080E03A
S1130A6090E002C080E090E0DF91CF911F910F9160
S1130A70FF90EF900895DC01ED91FC9182E190E00C
S1130A800995009729F022E1FC0111922A95E9F7D2
S1130A9008950F931F93CF93DF93FC01892B29F1C2
S1130AA080819181009721F104811581011511053F
S1130AB011F5309719F14281538198012C5F3F4F12
S1130AC024173507F0F4EF0143E050E06CE071E0E7
S1130AD0800F911F0E94D818892BB1F40D5F1F4F0E
S1130AE01D830C838C2F9D2F11C080E090E00EC0DD
S1130AF080E090E00BC080E090E008C08E2F9F2F34
S1130B0005C08E2F9F2F02C08C2F9D2FDF91CF9178
S1130B101F910F9108956F927F928F929F92AF923F
S1130B20BF92CF92DF92EF92FF920F931F93CF93D6
S1130B30DF9300D0CDB7DEB76C018B011A82198226
S1130B400E940601982E0115110509F4C5C0D801AB
S1130B502D913C912115310509F4C1C0A12CB12C72
S1130B60E12CF12C80E090E01AC0F901E40FF51FAC
S1130B70E0814E2F50E0FA01BB97EB33F10500F50D
S1130B80E857FF4F0C946215BFEFEB1AFB0A06C03F
S1130B90EFEFEE1AFE0AAA24A394B12C01960115D4
S1130BA0110571F0D80114964D915C911597480F79
S1130BB0591F12966D917C91139746175707A8F207
S1130BC0D8011896ED91FC911997C70101960995E2
S1130BD03C01892B09F486C0F8016081718184810C
S1130BE09581680F791FA701C3010E94C618F301FC
S1130BF0EE0DFF1D1082AB2851F40EC0F301E80F77
S1130C00F91F20812E3209F49082019602C080E0FF
S1130C1090E08E159F0590F3BE016F5F7F4FC30177
S1130C200E944F174B015C01E980FA806E147F0427
S1130C3051F4D8011A96ED91FC911B97C3010995C3
S1130C4080E090E051C0F6016487758786879787B6
S1130C5020E03EEF4FEF56E40E94CE14882344F088
S1130C608FEF9FE7D6011B969C938E931A9719C01A
S1130C7020E030E040E057ECC501B4010E94E113EC
S1130C80181634F080E090E8F6019387828709C053
S1130C90C501B4010E94E613D6011B967C936E93A2
S1130CA01A9788E090E0F60197838683E618F708A0
S1130CB0D80114968D919C911597E80EF91E1596FE
S1130CC0FC92EE9214971A96ED91FC911B97C30136
S1130CD0099581E090E008C080E090E005C080E0E4
S1130CE090E002C080E090E00F900F90DF91CF91F0
S1130CF01F910F91FF90EF90DF90CF90BF90AF9036
S1130D009F908F907F906F900895AF92BF92CF92F3
S1130D10DF92EF92FF920F931F93CF93DF936115AE
S1130D20710509F4C6C0AB018C01009749F563E075
S1130D3070E0CA010E94AC04009709F4BDC022E22D
S1130D4032E2FC0131832083128281E090E0B9C059
S1130D509E3038F49C3048F428EF290F233048F4AF
S1130D6004C0923211F09C3521F48FEFE81AF80A8E
S1130D7005C0903218F485E0E80EF11C319603C0EA
S1130D80FC01E12CF12C90819111E2CFE01BF10BDD
S1130D905701AE0EBF1EB5016D5F7F4FCA010E94A1
S1130DA0AC046C01009709F48AC0EF28A9F4C2E2EC
S1130DB0FC01C193CF01A501B8010E94C618F50139
S1130DC03196EC0DFD1DC083E5012296CC0DDD1D91
S1130DD0188281E090E075C082E2F60181937F0180
S1130DE0E80156C0803240F0823231F08C3521F077
S1130DF0F7018083970147C097012F5F3F4F8CE530
S1130E00F701808388818C30D9F038F4893021F15E
S1130E108A30D1F0883021F50FC0823249F08C3508
S1130E2019F08D30E9F414C08CE5F70181832BC0EF
S1130E3082E2F701818327C082E6F701818323C020
S1130E4086E6F70181831FC08EE6F70181831BC00C
S1130E5082E7F701818317C084E7F701818313C018
S1130E601F928F9380E191E09F938F933F932F93F1
S1130E700E94F51897012B5F3F4F0F900F900F9032
S1130E800F900F900F9021967901FFEFEF1AFF0A50
S1130E9088818111A7CFF5013196EC0DFD1D82E209
S1130EA08083E5012296CC0DDD1D188281E090E05F
S1130EB008C080E090E005C080E090E002C080E0DF
S1130EC090E0DF91CF911F910F91FF90EF90DF9011
S1130ED0CF90BF90AF900895FC01808591850E94CA
S1130EE0850608956F927F929F92AF92BF92CF92A0
S1130EF0DF92EF92FF920F931F93CF93DF93CDB7BF
S1130F00DEB76E970FB6F894DEBF0FBECDBF8C016F
S1130F106B01DC011C969C901C971D96AC901D9750
S1130F201E96BC901E971F96EC90FE0131968AE1A6
S1130F30DF011D928A95E9F70E940601F82E1B8EA7
S1130F401C8E1D8E1E8EC114D10409F4CEC0292D11
S1130F503A2D4B2D5E2D692D7A2D8B2D9E2D0E94C1
S1130F60E113811110C0292D3A2D4B2D5E2D692DD1
S1130F707A2D8B2D9E2D0E9474139B01AC010E942F
S1130F80E113882361F085E0E6E1F1E0DE011196EA
S1130F9001900D928A95E1F704E010E06CC0F8012D
S1130FA002851385B801012E000C880B990B0E9451
S1130FB01E149B01AC01692D7A2D8B2D9E2D0E9450
S1130FC0E113811114C01F930F938BE191E09F9360
S1130FD08F93CE0101969F938F930E94F5188C01F5
S1130FE00F900F900F900F900F900F9044C0EF92BE
S1130FF0BF92AF929F928EE191E09F938F939E0157
S11310002F5F3F4F39013F932F930E94F5188C01B6
S1131010CE014B969F938F9385E291E09F938F939C
S11310207F926F920E9417190FB6F894DEBF0FBE1D
S1131030CDBF019761F46B8D7C8D8D8D9E8D292D97
S11310403A2D4B2D5E2D0E940801892BA1F4EF92BD
S1131050BF92AF929F9289E291E09F938F93CE01CA
S113106001969F938F930E94F5188C010FB6F89404
S1131070DEBF0FBECDBF58010A311105C8F5B80156
S11310806F5F7F4FC6010E94AC04AC01892B99F1BC
S113109020E030E015C0E1E0F0E0EC0FFD1FE20FCE
S11310A0F31F9081F91206C08EE2FA01E20FF31FDA
S11310B0808304C0FA01E20FF31F90832F5F3F4F38
S11310C02A153B0540F3FA01E20FF31F1082D60103
S11310D014968D919C911597A80EB91E1596BC92E5
S11310E0AE92149781E090E008C080E090E005C0E3
S11310F080E090E002C080E090E06E960FB6F89435
S1131100DEBF0FBECDBFDF91CF911F910F91FF9036
S1131110EF90DF90CF90BF90AF909F907F906F90B3
S113112008950F931F93CF93DF93009709F48FC013
S11311306115710509F48EC09B018C01FC01C68107
S1131140D781DD27C830D10509F454C05CF4C2301E
S1131150D105E9F1C430D105B1F0C130D10509F0B0
S11311607CC024C0C032D10509F469C024F460975E
S113117009F461C072C0C034D10509F464C0C03838
S1131180D105E1F16AC065E070E0C9010E94AC04D8
S1131190009709F465C025E0E6E1F1E0DC01019087
S11311A00D922A95E1F7C1E0D0E068C066E070E0F6
S11311B0C9010E94AC04009709F455C026E0E0E39D
S11311C0F1E0DC0101900D922A95E1F757C065E04A
S11311D070E0C9010E94AC04009709F447C025E0FF
S11311E0E6E3F1E0DC0101900D922A95E1F7C1E01C
S11311F0D0E044C00E947207EC0140C0FC01A0850D
S1131200B1851097B1F1FD0101900020E9F7319704
S1131210EA1BFB0BEF012196BE01C9010E94AC043D
S1131220009751F1F80160857185AE010E94C618DE
S1131230C1E0D0E023C00E946C07EC011FC00E94F3
S1131240EF09EC011BC00E94780AEC0117C0C0E052
S1131250D0E014C0C0E0D0E011C0C0E0D0E00EC0C7
S1131260C0E0D0E00BC0C0E0D0E008C0C0E0D0E0F7
S113127005C0C0E0D0E002C0C0E0D0E0CE01DF9104
S1131280CF911F910F910895CF92DF92EF92FF9229
S11312900F931F93CF93DF93CDB7DEB762970FB64B
S11312A0F894DEBF0FBECDBF6C017B018A01FE0145
S11312B0319682E1DF011D928A95E9F7DA01ED9119
S11312C0FC9180E091E009959A83898320E031E0E4
S11312D03C832B83FC86EB8626E0F801DE011D9619
S11312E001900D922A95E1F7892B09F449C0BE01BA
S11312F06F5F7F4FC6010E949108892B09F443C098
S1131300CE0101960E940004D8011496ED91FC913F
S11313101597309761F06D817E816F5F7F4F898172
S11313209A8109957C01009781F19F2D49C0D801CC
S1131330ED91FC918D819E81019609957C01892B0B
S113134021F14D815E818B819C8169817A814F5F1E
S11313505F4F8417950708F4AC01C7010E94C618B3
S1131360ED81FE81EE0DFF1D1082D8011296ED91E4
S1131370FC91139789819A8109958E2D9F2D20C008
S1131380E12CF12C02C0E12CF12C89819A81009787
S113139041F0D8011296ED91FC91139709951A82A8
S11313A01982E114F10451F0D8011296ED91FC91E7
S11313B01397C701099580E090E002C080E090E0B7
S11313C062960FB6F894DEBF0FBECDBFDF91CF910A
S11313D01F910F91FF90EF90DF90CF900895EF92BF
S11313E0FF920F931F93CF93DF93DC0114960D911B
S11313F01C9115976115710509F468C0EB0161E052
S113140070E0CE010E94AC04009709F462C02BE5A1
S1131410FC0120838C819D8101969D838C838E8128
S11314209F8101969F838E833AC0BE01C8010E94AA
S11314309108009709F455C0CE010E940004D80118
S11314408D919C91892B41F18A859B85892B29F06B
S11314506894EE24E1F8F12C03C0EE24E394F12C1B
S1131460B7016F5F7F4FCE010E94AC040097A1F1DA
S1131470FC0131962CE2DC012C932A853B85232B3D
S113148021F0319620E211962C9310828C819D815B
S1131490E80EF91EFD82EC82F8010081118101152C
S11314A0110519F662E070E0CE010E94AC040097C9
S11314B0B1F02DE5DC012C9311961C928E819F8155
S11314C001979F838E8381E090E00BC080E090E0E1
S11314D008C080E090E005C080E090E002C080E0B9
S11314E090E0DF91CF911F910F91FF90EF900895BD
S11314F0EF92FF920F931F93CF93DF93DC01149627
S11315000D911C9115976115710509F4F5C0FB0146
S113151082859385892B29F06894EE24E1F8F12CD7
S113152003C0EE24E394F12CEB01B7016F5F7F4F0E
S1131530CE010E94AC04009709F4E1C02BE7DC0162
S11315402C932E813F812F5F3F4F3F832E832A852B
S11315503B85232B19F02AE011962C938C819D81D5
S1131560E80EF91EFD82EC8294C08A859B85892B46
S1131570D9F06E817F81CE010E94AC04FC01892BDD
S113158009F4C0C080E090E004C029E02083019603
S113159031962E813F8182179307B8F38C819D8108
S11315A0280F391F3D832C83BE01F801808991895E
S11315B00E948506009709F4B0C0CE010E94000481
S11315C08A859B85892B29F06894EE24E1F8F12C17
S11315D003C0EE24E394F12CB701CE010E94AC04C5
S11315E0009709F492C02AE3DC012C932A853B85F9
S11315F0232B19F029E011962C936C817D816E0DBB
S11316007F1D7D836C83BE01C8010E9491080097F1
S113161009F483C0CE010E9400048A859B85892B2E
S113162019F021E030E002C020E030E0F8018081D0
S11316309181892B19F081E090E002C080E090E074
S11316407901E80EF91EB7016F5F7F4FCE010E944A
S1131650AC04009709F45CC0D8012D913C91232B74
S113166031F0FC0131962CE2DC012C9301C0FC0129
S11316708A859B85892B19F08AE0808331961082B4
S11316808C819D81E80EF91EFD82EC82F8010081B7
S113169011810115110509F068CF8A859B85892B75
S11316A029F06E817F816F5F7F4F02C062E070E03E
S11316B0CE010E94AC04FC01892B69F18A859B85CB
S11316C0892B31F40EC029E020830196319602C0A3
S11316D080E090E02E813F812150310982179307E9
S11316E090F38DE7808311828E819F8101979F8380
S11316F08E8381E090E011C080E090E00EC080E035
S113170090E00BC080E090E008C080E090E005C06D
S113171080E090E002C080E090E0DF91CF911F91E3
S11317200F91FF90EF900895CF92DF92FF920F9365
S11317301F93CF93DF93EC018B010097F9F06115B0
S11317407105F9F08617970731F41EC0FF20F9F0F0
S113175021960F5F1F4FF8808F2D90E00E94A618EE
S11317606C01F801808190E00E94A618C816D90681
S113177069F39601281B390BC9010BC081E090E085
S113178008C081E090E005C080E090E002C080E005
S113179090E0DF91CF911F910F91FF90DF90CF9058
S11317A008950F931F93CF93DF93009779F16115F9
S11317B0710579F18B01FC01C481D581452B21F49C
S11317C013C00990D881C02D2097B9F06889798910
S11317D06115710591F0C8010E94CF18892B89F712
S11317E00CC00990D881C02D209739F06889798977
S11317F0C8010E94940B892BA1F7209769F088896E
S11318009989892B61F480E090E00BC080E090E03E
S113181008C080E090E005C080E090E002C08C2F1A
S11318209D2FDF91CF911F910F9108950F931F93D7
S1131830CF93DF93EC0132C0088119818E819F819F
S113184090FD06C08C819D81009711F00E94160CBA
S11318508E819F8190FD0BC088859985009739F012
S1131860E0910801F09109010995198618868E8185
S11318709F8191FD0BC088899989009739F0E09187
S11318800801F09109010995198A188AE091080163
S1131890F0910901CE010995C02FD12F209761F64F
S11318A0DF91CF911F910F910895AF92BF92CF9284
S11318B0DF92EF92FF920F931F93CF93DF93FB017D
S11318C026813781283EF3E03F0708F0B2C0EB01E0
S11318D08C012F5F3F4F3F832E83E881F9818C81F8
S11318E09D81E80FF91F20812B3509F097C00196DF
S11318F09D838C83CB010E947903209781F08C8196
S11319009D812A813B818217930748F4288139817C
S1131910F901E80FF91F80818D3509F461C0209722
S113192039F08C819D812A813B818217930740F095
S11319308C819D8101979D838C83E12CF12C70C057
S113194001979D838C83A12CB12CE12CF12CCE0129
S113195008960E943B056C01009709F461C0E114EC
S1131960F10439F0F50191838083FC01B382A282F2
S113197001C07C018C819D8101969D838C83CE0165
S11319800E947903BE01C6010E94290D892B09F426
S113199047C0CE010E947903209781F08C819D81FC
S11319A02A813B818217930748F428813981F90100
S11319B0E80FF91F808156018C3249F2209781F19A
S11319C08C819D812A813B818217930748F5288168
S11319D03981F901E80FF91F80818D3509F504C0BB
S11319E0C12CD12CE12CF12C8E819F8101979F83F6
S11319F08E83E114F10419F0F701D382C28280E2EC
S1131A0090E0F80197838683F582E4828C819D813E
S1131A1001969D838C8381E090E010C0E12CF12C31
S1131A20E114F10449F0C7010E94160C80E090E033
S1131A3005C080E090E002C080E090E0DF91CF91AB
S1131A401F910F91FF90EF90DF90CF90BF90AF90D8
S1131A500895EF92FF920F931F93CF93DF93611535
S1131A60710509F4C9C0FB0100811181011511053B
S1131A7009F4C5C0EB017C01309709F1848195819B
S1131A80AC014C5F5F4F2281338124173507B8F0D6
S1131A9044E050E066E171E0800F911F0E94D81885
S1131AA0892B69F484E090E0F701978386838C8125
S1131AB09D8104969D838C8381E090E0ABC0209748
S1131AC009F18C819D81AC014B5F5F4F2A813B8181
S1131AD024173507B8F045E050E060E371E0800F6B
S1131AE0911F0E94D818892B69F481E090E0F701D6
S1131AF0978386838C819D8105969D838C8381E069
S1131B0090E088C0209729F18C819D81AC014C5FC5
S1131B105F4F2A813B8124173507D8F044E050E019
S1131B2066E371E0800F911F0E94D818892B89F415
S1131B3082E090E0F7019783868381E090E09387C9
S1131B4082878C819D8104969D838C8381E090E0C3
S1131B5061C0209791F08C819D812A813B818217FD
S1131B60930758F4F801E80FF91F8081823229F4B1
S1131B70BE01C7010E944D024DC02097A9F08C817F
S1131B809D812A813B818217930770F4F801E80F45
S1131B90F91F80818D3219F080538A3028F4BE01F8
S1131BA0C7010E948B0536C0209791F08C819D81DE
S1131BB02A813B818217930758F4F801E80FF91F33
S1131BC080818B3529F4BE01C7010E94550C22C0C7
S1131BD02097C1F08C819D812A813B8182179307D4
S1131BE0A0F4F801E80FF91F80818B3789F4BE0156
S1131BF0C7010E94110E0EC080E090E00BC080E08F
S1131C0090E008C080E090E005C080E090E002C071
S1131C1080E090E0DF91CF911F910F91FF90EF90C2
S1131C200895AF92BF92CF92DF92EF92FF920F93FB
S1131C301F93CF93DF93FB0126813781283EF3E086
S1131C403F0708F0F5C0EB017C012F5F3F4F3F8356
S1131C502E83209709F4DBC08C819D812A813B81EE
S1131C608217930708F0D6C0E881F981E80FF91FBD
S1131C7020812B3709F0D1C001969D838C83CB0141
S1131C800E947903209781F08C819D812A813B8178
S1131C908217930748F428813981F901E80FF91F65
S1131CA080818D3709F495C0209739F08C819D810E
S1131CB02A813B818217930740F08C819D81019793
S1131CC09D838C8300E010E0AAC001979D838C83E0
S1131CD0A12CB12C00E010E0CE0108960E943B0537
S1131CE06C01009709F49BC00115110539F0F50149
S1131CF091838083FC01B382A28201C08C0120976E
S1131D0009F48DC08C819D8101962A813B818217C3
S1131D10930708F084C09D838C83CE010E947903CD
S1131D20BE01C6010E944D02892B09F478C0CE0180
S1131D300E947903F60180859185918B808B1186B1
S1131D401086209709F46BC08C819D812A813B8188
S1131D508217930708F063C0E881F981E80FF91F3F
S1131D6020812A3309F05BC001969D838C83CE01C8
S1131D700E947903BE01C6010E94290D892B09F432
S1131D804EC0CE010E947903209789F08C819D81F9
S1131D902A813B818217930750F428813981F90104
S1131DA0E80FF91F808156018C3209F495CF2097F2
S1131DB0B1F18C819D812A813B818217930778F54B
S1131DC028813981F901E80FF91F80818D3739F5B0
S1131DD004C0C12CD12C00E010E08E819F810197BA
S1131DE09F838E830115110519F0F801D382C282F5
S1131DF080E490E0F70197838683158304838C81C4
S1131E009D8101969D838C8381E090E016C000E063
S1131E1010E005C000E010E002C000E010E0011591
S1131E20110549F0C8010E94160C80E090E005C03D
S1131E3080E090E002C080E090E0DF91CF911F91BC
S1131E400F91FF90EF90DF90CF90BF90AF900895E7
S1131E50AF92BF92CF92DF92EF92FF920F931F93B4
S1131E60CF93DF93CDB7DEB72E970FB6F894DEBFCE
S1131E700FBECDBF8C017A015901FE0131968EE06F
S1131E80DF011D928A95E9F7E4ECF2E011821082F9
S1131E90138212820115110509F448C061157105F8
S1131EA009F447C01A8309837C836B8386E0E6E0E8
S1131EB0F1E0DE01199601900D928A95E1F786E032
S1131EC091E00E943B056C01892BA9F1CE0101969A
S1131ED00E9449050E947903BC01C6010E94290D94
S1131EE0892B49F1AB2899F0CE0101960E94790320
S1131EF08D819E812B813C8182179307E0F4298197
S1131F003A81F901E80FF91F8081811114C0E114AD
S1131F10F104F1F129813A818D819E81820F931F11
S1131F20F701918380838C2D9D2D37C0C12CD12C3A
S1131F3002C0C12CD12CC114D10419F0C6010E94D5
S1131F40160C0115110539F1C801A0E0B0E04D816E
S1131F505E812B813C814217530710F4DA0105C0DE
S1131F602115310511F0D9011197E114F10429F07B
S1131F700A0F1B1FF701118300838093C4029093FF
S1131F80C502A093C602B093C70280E090E005C0EA
S1131F908C2D9D2D02C080E090E02E960FB6F89413
S1131FA0DEBF0FBECDBFDF91CF911F910F91FF9088
S1131FB0EF90DF90CF90BF90AF900895009779F0A5
S1131FC09A01AB01FC0101900020E9F73197E81B6D
S1131FD0F90BBF016F5F7F4F0E94280F089580E0C7
S1131FE090E0089540E050E060E070E00E94DE0F71
S1131FF0089546E051E060E070E00E9444090895CD
S113200040E050E00E94D10B0895CF92DF92EF920E
S1132010FF92CF93DF936B017C0186E091E00E94F5
S11320203B05EC01892B61F188E090E09F838E836E
S1132030CC86DD86EE86FF8620E03EEF4FEF56E449
S1132040C701B6010E94CE1488232CF08FEF9FE7BE
S11320509B878A8715C020E030E040E057ECC70139
S1132060B6010E94E11318162CF080E090E89B87DB
S11320708A8706C0C701B6010E94E6137B876A8778
S1132080CE01DF91CF91FF90EF90DF90CF90089534
S1132090CF92DF92EF92FF920F931F93CF93DF9330
S11320A07C016B01CA01B9010E940510D82FC92F08
S11320B000E010E026E031E0482F592FB601C701B7
S11320C00E944F04892B39F48D2F9C2F0E94160CEB
S11320D080E090E002C08D2F9C2FDF91CF911F9163
S11320E00F91FF90EF90DF90CF9008950F931F937F
S11320F0CF93DF938C0186E091E00E943B05EC01D5
S1132100009799F080E190E09F838E8366E071E010
S1132110C8010E94220499878887892B41F4CE0143
S11321200E94160C80E090E004C09D2F02C08C2F0A
S11321309D2FDF91CF911F910F910895CF92DF9240
S1132140EF92FF920F931F93CF93DF937C016B0168
S1132150CA010E947610D82FC92F00E010E026E0B3
S113216031E0482F592FB601C7010E944F04892B33
S113217039F48D2F9C2F0E94160C80E090E002C051
S11321808D2F9C2FDF91CF911F910F91FF90EF9096
S1132190DF90CF90089586E091E00E943B05009780
S11321A029F020E430E0FC0137832683089500976A
S11321B041F0FC01968181E0983009F080E090E0E4
S11321C0089580E090E00895009741F0FC01968125
S11321D081E0903109F080E090E0089580E090E0A3
S11321E00895EF92FF920F931F93CF93DF930E9472
S11321F0CB107C0148EC52E06CE771E00E949E1029
S1132200C8ECD2E06889798980E090E00E941C14CF
S11322109B01AC016FE771E0C7010E9448106E8911
S11322207F8980E090E00E941C149B01AC0165E86A
S113223071E0C7010E944810688D798D80E090E0BC
S11322400E941C149B01AC016DE871E0C7010E945F
S113225048106A897B8980E090E00E941C149B01ED
S1132260AC0163E971E0C7010E9448106C897D8963
S113227080E090E00E941C149B01AC016CE971E0C9
S1132280C7010E9448106A8D70E080E090E00E94CF
S11322901C149B01AC0168EA71E0C7010E9448105C
S11322A0C7010E94F90F8C010E945C1380EC92E03C
S11322B00E945C13C8010E940016C7010E94160CFC
S11322C0DF91CF911F910F91FF90EF90089580E4DB
S11322D080937C0086E880937A00089587B1877F95
S11322E087B98AB18F768AB984B1887F84B988B175
S11322F0886088B98BB180698BB985B1876085B9ED
S1132300089586B186958695869591E08927817092
S1132310089589B182958F7091E08927817008951D
S1132320CF92DF92EF92FF920F931F93CF93DF939D
S11323300E94F20FEC01009729F48EEA91E00E94CA
S11323405C138AC068ED71E00E9400108C016CE798
S113235071E0CE010E9400106C016CED71E0CE01C1
S11323600E9400107C01C8010E94E410892B09F42A
S11323704AC0F8010085118561EE71E0C8010E9430
S1132380CF18892B69F4E8ECF2E0138A128A158AD3
S1132390148A81E0828F87EE91E00E945C1333C03F
S11323A06AE072E0C8010E94CF18892B39F41092B8
S11323B0E20280E192E00E945C1325C063E372E0D4
S11323C0C8010E94CF18892BF1F4E8ECF2E0138ADB
S11323D0128A158A148A178A168A118E108E118A07
S11323E0108A128E87E0EAE3F2E0A8ECB2E00190F2
S11323F00D928A95E1F780E090E00E94D41281E486
S113240092E00E945C13C6010E94E410892B79F0CB
S1132410F601608571854FE050E088EC92E00E94FF
S1132420E6181092D70285E692E00E945C13C70179
S11324300E94D710892B69F0F701828593859093C8
S1132440D9028093D8020E94D41285E892E00E94B7
S11324505C13CE010E94160CDF91CF911F910F9156
S1132460FF90EF90DF90CF900895CF93DF93CDB797
S1132470DEB7C058D1090FB6F894DEBF0FBECDBF8A
S113248080E096E90E943F130E94F0120E946E11B0
S11324900E9467110E94DF120E94DA129093D902FF
S11324A08093D80287E0EAE3F2E0A8ECB2E001907E
S11324B00D928A95E1F787EA92E00E945C1300E0AE
S11324C00E943713882359F08091E3020E94E61298
S11324D081E09091E302911180E08093E3020E94F5
S11324E069138823E9F00E946D138A3011F08D304E
S11324F069F4E1E0F0E0EC0FFD1FE00FF11D108244
S1132500CE0101960E94901100E00AC00F3740F4FA
S1132510E1E0F0E0EC0FFD1FE00FF11D80830F5FA1
S11325208091E202882361F20E942F13882341F2F2
S11325300E948111182F0E948911112361F090913A
S1132540E502911108C0E8ECF2E0268937892F5F93
S11325503F4F378B268B882361F09091E4029111D1
S113256008C0E8ECF2E0208D318D2F5F3F4F318FB2
S1132570208F1093E5028093E402E8ECF2E0208DD2
S1132580318D338B228B868997892817390718F464
S1132590821B930B02C080E090E09093DD02809355
S11325A0DC020E94F1108CCFBC0180E090E00E941C
S11325B0D91E089580E090E00E94D31E08958AB148
S11325C08C668AB987B1806387B90895882321F01E
S11325D088B1806188B9089588B18F7E88B90895DB
S11325E014BC85E085BD81E080936E0016BC7894B0
S11325F008951F920F920FB60F9211248F939F93F9
S11326008091E9029091EA0201969093EA02809304
S1132610E9028091E9029091EA02409760F081E03A
S11326208093E7021092EA021092E9028091E80294
S11326308F5F8093E8028091E802843049F49BB173
S113264080E489278BB981E08093E6021092E80246
S11326509F918F910F900FBE0F901F9018958091AE
S1132660E602882319F01092E60281E00895809131
S1132670E702882319F01092E70281E008959C0193
S113268040E050E060E271EA87E090E00E9440158B
S1132690215031093093C5002093C40088E1809310
S11326A0C10086E08093C20008959091C00095FF18
S11326B0FCCF8093C6000895CF93DF93EC0103C051
S11326C021960E94551388818111FACFDF91CF9111
S11326D008958091C000807808950E94691388232A
S11326E0E1F38091C60008955058BB27AA270E94A1
S11326F08C130C9494140E94861438F00E948D1448
S113270020F039F49F3F19F426F40C9483140EF44A
S1132710E095E7FB0C947D14E92F0E94A51458F36F
S1132720BA17620773078407950720F079F4A6F5B2
S11327300C94C7140EF4E0950B2EBA2FA02D0B01A8
S1132740B90190010C01CA01A0011124FF27591BF2
S113275099F0593F50F4503E68F11A16F040A22FF8
S1132760232F342F4427585FF3CF46953795279569
S1132770A795F0405395C9F77EF41F16BA0B620B68
S1132780730B840BBAF09150A1F0FF0FBB1F661FAF
S1132790771F881FC2F70EC0BA0F621F731F841FF2
S11327A048F4879577956795B795F7959E3F08F018
S11327B0B0CF9395880F08F09927EE0F97958795DA
S11327C008950E94591408F481E008950E94ED13BD
S11327D06894B1110C94C81408950E94AD1488F043
S11327E09F5798F0B92F9927B751B0F0E1F0660FD1
S11327F0771F881F991F1AF0BA95C9F714C0B13012
S113280091F00E94C714B1E008950C94C714672F87
S1132810782F8827B85F39F0B93FCCF38695779540
S11328206795B395D9F73EF4909580957095619529
S11328307F4F8F4F9F4F0895E89409C097FB3EF454
S113284090958095709561957F4F8F4F9F4F9923F9
S1132850A9F0F92F96E9BB279395F6958795779577
S11328606795B795F111F8CFFAF4BB0F11F460FF37
S11328701BC06F5F7F4F8F4F9F4F16C0882311F08F
S113288096E911C0772321F09EE8872F762F05C0A3
S1132890662371F096E8862F70E060E02AF09A953E
S11328A0660F771F881FDAF7880F9695879597F933
S11328B00895990F0008550FAA0BE0E8FEEF1616CD
S11328C01706E807F907C0F012161306E407F50720
S11328D098F0621B730B840B950B39F40A2661F094
S11328E0232B242B252B21F408950A2609F4A14037
S11328F0A6958FEF811D811D089597F99F6780E844
S113290070E060E008959FEF80EC089500240A943D
S11329101616170618060906089500240A941216B6
S11329201306140605060895092E0394000C11F4E9
S1132930882352F0BB0F40F4BF2B11F460FF04C096
S11329406F5F7F4F8F4F9F4F089557FD9058440FEF
S1132950551F59F05F3F71F04795880F97FB991FFA
S113296061F09F3F79F087950895121613061406B7
S1132970551FF2CF4695F1DF08C016161706180644
S1132980991FF1CF86957105610508940895E8941F
S1132990BB2766277727CB0197F908950E9459141E
S11329A008F48FEF08950E94E6140C9494140E9486
S11329B0861438F00E948D1420F0952311F00C94A5
S11329C07D140C94831411240C94C8140E94A5142F
S11329D070F3959FC1F3950F50E0551F629FF0016E
S11329E0729FBB27F00DB11D639FAA27F00DB11D87
S11329F0AA1F649F6627B00DA11D661F829F222710
S1132A00B00DA11D621F739FB00DA11D621F839F96
S1132A10A00D611D221F749F3327A00D611D231F6C
S1132A20849F600D211D822F762F6A2F11249F57BA
S1132A3050409AF0F1F088234AF0EE0FFF1FBB1FBD
S1132A40661F771F881F91505040A9F79E3F51057C
S1132A5080F00C947D140C94C8145F3FE4F3983E0A
S1132A60D4F3869577956795B795F795E7959F5F26
S1132A70C1F7FE2B880F911D9695879597F90895B8
S1132A80A1E21A2EAA1BBB1BFD010DC0AA1FBB1F6E
S1132A90EE1FFF1FA217B307E407F50720F0A21BE0
S1132AA0B30BE40BF50B661F771F881F991F1A944D
S1132AB069F760957095809590959B01AC01BD0177
S1132AC0CF010895EE0FFF1F0590F491E02D0994B6
S1132AD00F931F93CF93DF938230910510F482E01C
S1132AE090E0E091ED02F091EE0220E030E0A0E011
S1132AF0B0E0309719F14081518102811381481768
S1132B005907C8F08417950769F4109731F01296A5
S1132B100C93129713961C9327C00093ED02109305
S1132B20EE0222C02115310519F04217530718F49B
S1132B309A01BD01EF01DF01F801DBCF2115310559
S1132B40F9F0281B390B2430310580F48A819B81EC
S1132B506115710521F0FB019383828304C0909376
S1132B60EE028093ED02FE01329644C0FE01E20FB4
S1132B70F31F8193919322503109398328833AC0FA
S1132B802091EB023091EC02232B41F420910201BD
S1132B90309103013093EC022093EB022091000169
S1132BA0309101012115310541F42DB73EB7409113
S1132BB0040150910501241B350BE091EB02F091C7
S1132BC0EC02E217F307A0F42E1B3F0B281739077A
S1132BD078F0AC014E5F5F4F2417350748F04E0F75
S1132BE05F1F5093EC024093EB028193919302C0D8
S1132BF0E0E0F0E0CF01DF91CF911F910F910895B4
S1132C00CF93DF93009709F481C0FC0132971382BC
S1132C101282A091ED02B091EE02109781F420810E
S1132C203181820F931F2091EB023091EC0228171F
S1132C30390751F5F093EC02E093EB0267C0ED0124
S1132C4020E030E0CE17DF0740F44A815B819E012B
S1132C5041155105F1F0EA01F5CFD383C2834081D8
S1132C605181840F951FC817D90759F48881998118
S1132C70840F951F0296918380838A819B8193831D
S1132C8082832115310529F4F093EE02E093ED02DD
S1132C903DC0E901FB83EA8349915991C40FD51FD3
S1132CA0EC17FD0761F480819181840F951F0296D2
S1132CB0E90199838883828193819B838A83E0E0FD
S1132CC0F0E012968D919C911397009719F0FD01F5
S1132CD0DC01F7CF8D919C9111979D012E5F3F4FA1
S1132CE0820F931F2091EB023091EC0228173907D1
S1132CF069F4309729F41092EE021092ED0202C0AA
S1132D0013821282B093EC02A093EB02DF91CF9175
S1132D100895A0E0B0E0EFE8F6E10C94101FEC0198
S1132D20009721F4CB010E946815B4C0FC01E60FA2
S1132D30F71F9C0122503109E217F30708F4A8C0D9
S1132D40D9010D911C91119706171707B0F00530A2
S1132D50110508F49BC0C80104978617970708F467
S1132D6095C002501109061B170B019311936D9323
S1132D707C93CF010E94001689C05B01A01AB10A9E
S1132D804C01800E911EA091ED02B091EE02612CD7
S1132D90712CE12CF12C109709F446C08D919C9173
S1132DA01197A815B905B1F56C0142E0C40ED11C08
S1132DB0CA14DB0478F14C018A189B08640142E0D0
S1132DC0C40ED11C1296BC9012971396AC91B5E028
S1132DD0CB16D10440F0B282A38391828082D901C0
S1132DE06D937C9309C00E5F1F4F800F911FF901F3
S1132DF091838083EB2DFA2FE114F10431F0D70194
S1132E001396FC93EE93129741C0F093EE02E09375
S1132E10ED023CC06816790608F43C017D01129667
S1132E200D90BC91A02DB7CF8091EB029091EC0254
S1132E3088169906E1F466167706C8F480910001B5
S1132E4090910101009741F48DB79EB74091040120
S1132E5050910501841B950BE817F907C8F4F0930A
S1132E60EC02E093EB02F901718360830FC0CB01A4
S1132E700E9468157C01009759F0A801BE010E94C8
S1132E80C618CE010E940016C70104C0CE0102C0BC
S1132E9080E090E0CDB7DEB7EEE00C942C1FA0E00C
S1132EA0B0E0E5E5F7E10C94121FEC016B0161154C
S1132EB0710519F0FB01918380837E01FFEFEF1A06
S1132EC0FF0A0881802F90E00E949D18892B11F041
S1132ED0E701F3CF0D3239F47E0182E0E80EF11CF4
S1132EE0098111E008C00B3229F47E0192E0E90E59
S1132EF0F11C098110E0E701219743E050E06EE8FE
S1132F0071E0CE010E94AE18892BC1F4239645E0EE
S1132F1050E069E871E0CE010E94AE18892B09F4F3
S1132F202596C114D10419F0F601D183C08311117F
S1132F30F6C060E070E080E89FE7FAC043E050E04C
S1132F4066E871E0CE010E94AE18892B59F4C114D1
S1132F50D10409F4E9C0F2E0EF0EF11CF601F182AC
S1132F60E082E2C020E030E0A901C0E0D0E0F70157
S1132F7080EDA82EA00E89E08A1530F1912F926081
S1132F80B92E812F887012FF04C0811124C02196AC
S1132F9022C081112197A5E0B0E00E94011FDC014D
S1132FA0CB01880F991FAA1FBB1F9C01AD012A0DDD
S1132FB0311D411D511D283989E93807480789E128
S1132FC0580748F0166006C09EEFA9120AC013FD08
S1132FD040C01860B12E8FEFE81AF80A00811B2D4B
S1132FE0C6CF802F8F7D8534A1F580818D3211F479
S1132FF0106106C08B3221F0319661E070E004C0AC
S11330008181329662E070E080538A3018F0E61BCA
S1133010F70B1FC060E070E060389CE079075CF457
S1133020DB01AA0FBB1FAA0FBB1F6A0F7B1F660F12
S1133030771F680F711D3196DF0111978C918053B2
S11330408A3050F314FF03C0719561957109C60F5E
S1133050D71F11FF08C0C114D10429F0CF01019773
S1133060F60191838083CA01B9010E941C14212FA7
S11330702370233019F04B015C0106C04B015C0145
S1133080B7FAB094B7F8B09420E030E0A901C501D4
S1133090B4010E94E113882309F43EC0D7FF06C09F
S11330A0D195C195D10905EA11E002C00DEB11E0FB
S11330B06801F8E1CF1AD10890E2E92EF12CCE157F
S11330C0DF0574F0F8012591359145915491C501BE
S11330D0B4010E94D3144B015C01CE19DF09EFCF78
S11330E004501109F594E7940C151D0541F78A2D38
S11330F0880F8B2D881F8F3F49F020E030E0A90115
S1133100C501B4010E94E113811106C082E290E07E
S11331109093F0028093EF02C501B40109C060E00E
S113312070E080E89FEF04C060E070E080EC9FE70F
S1133130CDB7DEB7ECE00C942E1F91110C94BE1D9C
S1133140803219F089508550C8F708959111089577
S113315081548A5108F4805E855A0895FB01DC018C
S11331604150504088F08D9181341CF08B350CF423
S1133170805E659161341CF06B350CF4605E861BD7
S1133180611171F3990B0895881BFCCFFB01DC01DD
S113319002C001900D9241505040D8F70895FB01B0
S11331A0DC018D91019080190110D9F3990B0895D8
S11331B0FB01DC014150504030F08D9101908019A9
S11331C019F40020B9F7881B990B0895FB01DC0161
S11331D04150504048F001900D920020C9F701C0C1
S11331E01D9241505040E0F70895AEE0B0E0EBEF9F
S11331F0F8E10C941A1F0D891E8986E08C831A83CA
S113320009838FEF9FE79E838D83AE01475E5F4FF7
S11332106F89788DCE0101960E943019EF81F8856F
S1133220E00FF11F10822E96E4E00C94361FAEE0FE
S1133230B0E0EDE1F9E10C941C1F85E08C838B89EF
S11332409C899A838983AE01495E5F4F6D897E892B
S1133250CE0101960E94AD1C2E96E2E00C94381F1C
S1133260ABE0B0E0E6E3F9E10C940C1F6C017B01E8
S11332708A01FC0117821682838181FFCCC1CE01B1
S113328001963C01F6019381F70193FD859193FF2B
S113329081917F01882309F4BAC1853239F493FD01
S11332A0859193FF81917F01853229F4B60190E0E5
S11332B00E94201EE7CF912C212C312CFFE1F31525
S11332C0D8F08B3279F038F4803279F08332A1F47B
S11332D0232D20611DC08D3261F0803369F4232DCC
S11332E0216016C0832D8260382EE32DE4603E2ECB
S11332F02AC0F32DF8601DC037FC2DC020ED280F27
S11333002A3040F08E32B9F436FC81C1232D20647A
S1133310322E19C036FE06C08AE0989E200D112474
S1133320922E11C0EAE02E9E200D1124222EF32DA0
S1133330F0623F2E08C08C3621F4832D8068382E2D
S113334002C0883641F4F70193FD859193FF819182
S11333507F018111B3CF982F9F7D9554933028F42A
S11333600C5F1F4F9FE399830DC0833631F0833781
S113337071F0833509F059C021C0F8018081898337
S11333800E5F1F4F88248394912C530113C028018E
S1133390F2E04F0E511CF801A080B18036FE03C04C
S11333A0692D70E002C06FEF7FEFC5010E94D71D49
S11333B04C018201F32DFF773F2E16C0280122E035
S11333C0420E511CF801A080B18036FE03C0692D65
S11333D070E002C06FEF7FEFC5010E94CC1D4C016D
S11333E0F32DF0683F2E820133FC1BC0822D90E048
S11333F088169906B0F4B60180E290E00E94201E7F
S11334002A94F4CFF50137FC859137FE81915F0151
S1133410B60190E00E94201E21102A9421E0821A15
S113342091088114910471F7E8C0843611F089364B
S113343041F5F80137FE07C0608171818281938173
S11334400C5F1F4F08C060817181072E000C880B30
S1133450990B0E5F1F4FF32DFF763F2E97FF09C088
S113346090958095709561957F4F8F4F9F4FF06831
S11334703F2E2AE030E0A3010E94751E882E861894
S113348045C0853731F4232D2F7EB22E2AE030E05B
S113349025C0932D997FB92E8F36C1F018F4883545
S11334A079F0B5C0803719F0883721F0B0C0E92F22
S11334B0E061BE2EB4FE0DC0FB2DF460BF2E09C02A
S11334C034FE0AC0292F2660B22E06C028E030E060
S11334D005C020E130E002C020E132E0F801B7FE8F
S11334E007C060817181828193810C5F1F4F06C088
S11334F06081718180E090E00E5F1F4FA3010E9404
S1133500751E882E8618FB2DFF773F2E36FE0DC0C4
S1133510232D2E7FA22E891458F434FE0BC032FCC6
S113352009C0832D8E7EA82E05C0B82CA32C03C001
S1133530B82C01C0B92CA4FE0FC0FE01E80DF11D8A
S11335408081803321F49A2D997EA92E09C0A2FE90
S113355006C0B394B39404C08A2D867809F0B3945A
S1133560A3FC11C0A0FE06C0B21488F4280C922C4F
S11335709B180EC0B21460F4B60180E290E00E9481
S1133580201EB394F7CFB21418F42B1802C0982C51
S1133590212CA4FE10C0B60180E390E00E94201EFE
S11335A0A2FE17C0A1FC03C088E790E002C088E532
S11335B090E0B6010CC08A2D867859F0A1FE02C0B5
S11335C08BE201C080E2A7FC8DE2B60190E00E948C
S11335D0201E891438F4B60180E390E00E94201E76
S11335E09A94F7CF8A94F301E80DF11D8081B60116
S11335F090E00E94201E8110F5CF222009F442CED3
S1133600B60180E290E00E94201E2A94F6CFF601D3
S11336108681978102C08FEF9FEF2B96E2E10C9495
S1133620281F20FD09C0FC0123FD05C022FF02C0A4
S11336307383628351834083089544FD17C046FD1C
S113364017C0AB01BC01DA01FB01AA0FBB1FEE1FBF
S1133650FF1F1094D1F74A0F5B1F6E1F7F1FCB0112
S1133660BA01660F771F881F991F09C033E001C094
S113367034E0660F771F881F991F3150D1F7620F0E
S1133680711D811D911D08950F931F93CF93DF9397
S11336908C01C8010E94E21DEC0197FD08C00E9444
S11336A09D18892BB1F7B801CE010E945C1ECE0192
S11336B0DF91CF911F910F9108958F929F92AF92B6
S11336C0BF92EF92FF920F931F93CF93DF938C01DE
S11336D0D62F7A01B22E0E94E21D9C0133272B3291
S11336E0310531F02D32310561F48B2D8068B82E0F
S11336F0D15011F480E068C0C8010E94E21D97FD1A
S1133700F9CFCB2DCD7F2B2D207309F58033F9F420
S1133710AA24AA94AD0E09F443C0C8010E94E21D74
S113372097FD3EC09C012F7D33272835310549F490
S1133730C264D250A9F1C8010E94E21D97FF07C0DC
S11337402FC0B6FE02C0C26001C0C261DA2D812C56
S1133750912C540120ED280F283080F0C4FF04C0C0
S1133760B8010E945C1E19C02A3040F0C6FFF8CF91
S11337702F7D3FEE320F363098F727504C2FC5017E
S1133780B4010E941D1B4B015C01C260D15059F071
S1133790C8010E94E21D97FFDDCFC1FD04C0AACF7E
S11337A0812C912C5401C7FF08C0B094A09490942C
S11337B08094811C911CA11CB11C2C2FB501A40167
S11337C0C7010E94111B81E0DF91CF911F910F91DE
S11337D0FF90EF90BF90AF909F908F900895A0E2DC
S11337E0B0E0E5EFFBE10C940F1F5C01962E7A012B
S11337F0F9018E010F5F1F4F680180E2D8011D920D
S11338008A95E9F7D50113968C9080E090E0612CBD
S1133810712C30E061E070E083FC259183FE2191FE
S11338208F01522E211103C080E090E092C02E350A
S113383011F4009751F1432F50E0481759073CF415
S11338402D3559F12D3219F4772009F103C0772071
S113385009F46AC0452D469546954695D601A40FB0
S1133860B11D452D47708B0102C0000F111F4A95F1
S1133870E2F7A8015C91452B4C93651459F056145A
S113388010F45394E7CF5A94E5CF31E004C0772481
S1133890739401C0712C0196BFCF772019F08E81EB
S11338A080628E83311103C08824839417C0F6018B
S11338B09E012F5D3F4F8081809581932E173F0796
S11338C0D1F7F2CFE114F10429F0D7018C93F70179
S11338D031967F019A94812C9920F9F0C5010E94B8
S11338E0E21D97FD18C0FC01FF2723E0F595E7953D
S11338F02A95E1F7EC0DFD1D208130E0AC01477005
S1133900552702C0359527954A95E2F720FDDACF71
S1133910B5010E945C1E811087CFE114F10411F0FF
S1133920D7011C92C80115C0422F4695469546956D
S1133930D601A40FB11D422F47708B0102C0000FA6
S1133940111F4A95E2F7A8015C91452B4C93622E16
S1133950A2CFA096EFE00C942B1FA0E0B0E0E3EB25
S1133960FCE10C940F1F6C01EB015A01FC0117825E
S11339701682512CF601E380FE01E3FC8591E3FEFF
S11339808191182FEF01882309F4EEC090E00E9482
S11339909D18892B21F0C6010E94441BEBCF1532E0
S11339A041F4FE01E3FC1591E3FE1191EF011532A0
S11339B081F4C6010E94E21D97FDD4C0412F50E05E
S11339C09C01332724173507A9F2B6010E945C1E17
S11339D0CBC01A3239F4E3FC1591E3FE1191EF01E7
S11339E001E001C000E0F12C20ED210F2A3080F429
S11339F002606F2D70E080E090E040E20E941D1BA9
S1133A00F62EFE01E3FC1591E3FE1191EF01ECCFDC
S1133A1001FF03C0F11003C0A7C0FF24FA941836B5
S1133A2019F01C3651F010C0FE01E3FC1591E3FEC1
S1133A301191EF01183641F408600460FE01E3FCC3
S1133A401591E3FE1191EF01112309F48DC0612F4B
S1133A5070E081EC91E00E94C11D892B09F484C0BF
S1133A6000FD07C0F50180809180C50102965C01CC
S1133A7002C0812C912C1E3651F4F60146815781E7
S1133A8060E070E0202FC4010E94111B73CF133635
S1133A90A9F401FD02C0FF24F394C6010E94E21DB3
S1133AA097FD60C08114910429F0F4018083C4015E
S1133AB001964C01FA94F110F0CF50C01B3559F423
S1133AC09E01A4016F2DC6010E94EF1BEC01892BFE
S1133AD009F044C03EC0C6010E94441B97FD42C089
S1133AE01F3661F128F4143639F1193651F128C022
S1133AF0133771F0153701F123C08114910429F0B3
S1133B00F4016082C40101964C01FA94FF2071F023
S1133B10C6010E94E21D3C0197FD08C00E949D1849
S1133B20892B59F3B601C3010E945C1E81149104D0
S1133B30A9F0F401108212C0006203C0006101C048
S1133B400064202FA4016F2DC6010E945D1B81110A
S1133B5005C0F6018381807329F406C000FD0ACFF5
S1133B60539408CF552019F0852D90E002C08FEFB3
S1133B709FEFCDB7DEB7EFE00C942B1F9927882772
S1133B800895FC010590061621F00020D9F7C00124
S1133B9008953197CF010895FC010590615070405C
S1133BA00110D8F7809590958E0F9F1F0895FC0102
S1133BB06150704001900110D8F7809590958E0F58
S1133BC09F1F0895CF93DF93EC012B8120FF33C017
S1133BD026FF0AC02F7B2B838E819F8101969F83B2
S1133BE08E838A8190E029C022FF0FC0E881F98189
S1133BF08081082E000C990B009719F420622B8306
S1133C001AC03196F983E8830EC0EA85FB850995CD
S1133C1097FF09C02B81019611F080E201C080E179
S1133C20822B8B8308C02E813F812F5F3F4F3F83C0
S1133C302E83992702C08FEF9FEFDF91CF910895D4
S1133C400F931F93CF93DF93FB01238121FD03C0C7
S1133C508FEF9FEF2CC022FF16C04681578124812D
S1133C6035814217530744F4A081B1819D012F5F30
S1133C703F4F318320838C93268137812F5F3F4FC1
S1133C803783268314C08B01EC01FB010084F1858A
S1133C90E02D0995892BE1F6D80116968D919C911A
S1133CA01797019617969C938E931697CE01DF91E2
S1133CB0CF911F910F910895FB01238120FF12C022
S1133CC026FD10C08F3F3FEF930761F082832F7D65
S1133CD02064238326813781215031093783268349
S1133CE0992708958FEF9FEF0895FA01AA272830A6
S1133CF051F1203181F1E8946F936E7F6E5F7F4FB5
S1133D008F4F9F4FAF4FB1E03ED0B4E03CD0670F30
S1133D10781F891F9A1FA11D680F791F8A1F911D83
S1133D20A11D6A0F711D811D911DA11D20D009F4D3
S1133D3068943F912AE0269F11243019305D319315
S1133D40DEF6CF010895462F4770405D4193B3E0FE
S1133D500FD0C9F7F6CF462F4F70405D4A3318F0A5
S1133D60495D31FD4052419302D0A9F7EACFB4E056
S1133D70A6959795879577956795BA95C9F700970E
S1133D806105710508959B01AC010A2E06945795AF
S1133D90479537952795BA95C9F7620F731F841F06
S1133DA0951FA01D0895A8E1B0E042E050E00C94F6
S1133DB0E11E0196272F0E94F01E0C94EF1EDC01D9
S1133DC0CB01FC01F999FECF06C0F2BDE1BDF89A22
S1133DD0319600B40D9241505040B8F70895262F03
S1133DE0F999FECF92BD81BDF89A019700B40216ED
S1133DF039F01FBA20BD0FB6F894FA9AF99A0FBE9B
S1133E0008950E94431FA59F900DB49F900DA49FF9
S1133E10800D911D112408952F923F924F925F922D
S1133E206F927F928F929F92AF92BF92CF92DF92C6
S1133E30EF92FF920F931F93CF93DF93CDB7DEB72B
S1133E40CA1BDB0B0FB6F894DEBF0FBECDBF0994BF
S1133E502A88398848885F846E847D848C849B8416
S1133E60AA84B984C884DF80EE80FD800C811B8124
S1133E70AA81B981CE0FD11D0FB6F894DEBF0FBE53
S1133E80CDBFED010895A29FB001B39FC001A39FD0
S1133E90700D811D1124911DB29F700D811D11247F
S10B3EA0911D0895F894FFCF71
S1133EA80000F1022000681500168916EFBBBF0058
S1133EB87525303478006E756C6C002564002531E6
S1133EC82E31356700256C670025312E31376700A0
S1133ED866616C736500747275650025692E2569C1
S1133EE82E2569004F463A25733B544F54414C3AAA
S1133EF825753B454E543A25753B5341493A25753A
S1133F083B50524F443A25753B444553503A257526
S1133F183B415449564F3A25750D0A006F660074A3
S1133F286F74616C00656E747261646100736169B9
S1133F3864610070726F647563616F0064657370A7
S1133F486572646963696F00617469766F007B22C6
S1133F58737461747573223A224552524F222C228B
S1133F686D7367223A224A534F4E20696E76616C0C
S1133F7869646F227D0D0A00636D64007365747152
S1133F88007374617274007B227374617475732294
S1133F983A224F4B222C22616374696F6E223A22B3
S1133FA87374617274227D0D0A0070617573650003
S1133FB87B22737461747573223A224F4B222C222C
S1133FC8616374696F6E223A227061757365227D2C
S1133FD80D0A0063616E63656C0053454D5F4F467F
S1133FE8007B22737461747573223A224F4B222C1E
S1133FF822616374696F6E223A2263616E63656C31
S1134008227D0D0A007B22737461747573223A222F
S11340184F4B222C22616374696F6E223A226F66B9
S1134028227D0D0A007B22737461747573223A220F
S11340384F4B222C22616374696F6E223A22736596
S11340487471227D0D0A0053697374656D61204F84
S113405845452076322E3520696E69636961646F3F
S10740680D0A000039
S9030000FC
